{
  "_format": "hh-sol-artifact-1",
  "contractName": "OSAP",
  "sourceName": "contracts/OSAP.sol",
  "abi": [
    {
      "inputs": [
        {
          "internalType": "string",
          "name": "_name",
          "type": "string"
        },
        {
          "internalType": "string",
          "name": "_symbol",
          "type": "string"
        },
        {
          "internalType": "uint256",
          "name": "_freeTokens",
          "type": "uint256"
        }
      ],
      "stateMutability": "nonpayable",
      "type": "constructor"
    },
    {
      "anonymous": false,
      "inputs": [
        {
          "indexed": true,
          "internalType": "address",
          "name": "owner",
          "type": "address"
        },
        {
          "indexed": true,
          "internalType": "address",
          "name": "approved",
          "type": "address"
        },
        {
          "indexed": true,
          "internalType": "uint256",
          "name": "tokenId",
          "type": "uint256"
        }
      ],
      "name": "Approval",
      "type": "event"
    },
    {
      "anonymous": false,
      "inputs": [
        {
          "indexed": true,
          "internalType": "address",
          "name": "owner",
          "type": "address"
        },
        {
          "indexed": true,
          "internalType": "address",
          "name": "operator",
          "type": "address"
        },
        {
          "indexed": false,
          "internalType": "bool",
          "name": "approved",
          "type": "bool"
        }
      ],
      "name": "ApprovalForAll",
      "type": "event"
    },
    {
      "anonymous": false,
      "inputs": [
        {
          "indexed": true,
          "internalType": "address",
          "name": "to",
          "type": "address"
        },
        {
          "indexed": true,
          "internalType": "uint256",
          "name": "tokenId",
          "type": "uint256"
        },
        {
          "indexed": false,
          "internalType": "string",
          "name": "cid",
          "type": "string"
        }
      ],
      "name": "Mint",
      "type": "event"
    },
    {
      "anonymous": false,
      "inputs": [
        {
          "indexed": true,
          "internalType": "address",
          "name": "from",
          "type": "address"
        },
        {
          "indexed": true,
          "internalType": "address",
          "name": "to",
          "type": "address"
        },
        {
          "indexed": true,
          "internalType": "uint256",
          "name": "tokenId",
          "type": "uint256"
        }
      ],
      "name": "Transfer",
      "type": "event"
    },
    {
      "anonymous": false,
      "inputs": [
        {
          "indexed": true,
          "internalType": "uint256",
          "name": "contributorId",
          "type": "uint256"
        },
        {
          "indexed": false,
          "internalType": "uint256",
          "name": "votes",
          "type": "uint256"
        }
      ],
      "name": "VoteAdded",
      "type": "event"
    },
    {
      "inputs": [
        {
          "internalType": "uint256",
          "name": "_contributorId",
          "type": "uint256"
        },
        {
          "internalType": "uint256",
          "name": "_votes",
          "type": "uint256"
        }
      ],
      "name": "addVote",
      "outputs": [],
      "stateMutability": "nonpayable",
      "type": "function"
    },
    {
      "inputs": [
        {
          "internalType": "address",
          "name": "to",
          "type": "address"
        },
        {
          "internalType": "uint256",
          "name": "tokenId",
          "type": "uint256"
        }
      ],
      "name": "approve",
      "outputs": [],
      "stateMutability": "nonpayable",
      "type": "function"
    },
    {
      "inputs": [
        {
          "internalType": "address",
          "name": "owner",
          "type": "address"
        }
      ],
      "name": "balanceOf",
      "outputs": [
        {
          "internalType": "uint256",
          "name": "",
          "type": "uint256"
        }
      ],
      "stateMutability": "view",
      "type": "function"
    },
    {
      "inputs": [],
      "name": "freeTokens",
      "outputs": [
        {
          "internalType": "uint256",
          "name": "",
          "type": "uint256"
        }
      ],
      "stateMutability": "view",
      "type": "function"
    },
    {
      "inputs": [
        {
          "internalType": "uint256",
          "name": "tokenId",
          "type": "uint256"
        }
      ],
      "name": "getApproved",
      "outputs": [
        {
          "internalType": "address",
          "name": "",
          "type": "address"
        }
      ],
      "stateMutability": "view",
      "type": "function"
    },
    {
      "inputs": [
        {
          "internalType": "uint256",
          "name": "contributorID",
          "type": "uint256"
        }
      ],
      "name": "getContributor",
      "outputs": [
        {
          "internalType": "string",
          "name": "cid",
          "type": "string"
        },
        {
          "internalType": "uint256",
          "name": "totalVotes",
          "type": "uint256"
        }
      ],
      "stateMutability": "view",
      "type": "function"
    },
    {
      "inputs": [],
      "name": "getLastMintedContributorId",
      "outputs": [
        {
          "internalType": "uint256",
          "name": "",
          "type": "uint256"
        }
      ],
      "stateMutability": "view",
      "type": "function"
    },
    {
      "inputs": [
        {
          "internalType": "address",
          "name": "owner",
          "type": "address"
        },
        {
          "internalType": "address",
          "name": "operator",
          "type": "address"
        }
      ],
      "name": "isApprovedForAll",
      "outputs": [
        {
          "internalType": "bool",
          "name": "",
          "type": "bool"
        }
      ],
      "stateMutability": "view",
      "type": "function"
    },
    {
      "inputs": [],
      "name": "lastMintedTokenId",
      "outputs": [
        {
          "internalType": "uint256",
          "name": "",
          "type": "uint256"
        }
      ],
      "stateMutability": "view",
      "type": "function"
    },
    {
      "inputs": [
        {
          "internalType": "address",
          "name": "_to",
          "type": "address"
        },
        {
          "internalType": "string",
          "name": "_cid",
          "type": "string"
        }
      ],
      "name": "mint",
      "outputs": [],
      "stateMutability": "nonpayable",
      "type": "function"
    },
    {
      "inputs": [],
      "name": "name",
      "outputs": [
        {
          "internalType": "string",
          "name": "",
          "type": "string"
        }
      ],
      "stateMutability": "view",
      "type": "function"
    },
    {
      "inputs": [
        {
          "internalType": "uint256",
          "name": "tokenId",
          "type": "uint256"
        }
      ],
      "name": "ownerOf",
      "outputs": [
        {
          "internalType": "address",
          "name": "",
          "type": "address"
        }
      ],
      "stateMutability": "view",
      "type": "function"
    },
    {
      "inputs": [
        {
          "internalType": "address",
          "name": "from",
          "type": "address"
        },
        {
          "internalType": "address",
          "name": "to",
          "type": "address"
        },
        {
          "internalType": "uint256",
          "name": "tokenId",
          "type": "uint256"
        }
      ],
      "name": "safeTransferFrom",
      "outputs": [],
      "stateMutability": "nonpayable",
      "type": "function"
    },
    {
      "inputs": [
        {
          "internalType": "address",
          "name": "from",
          "type": "address"
        },
        {
          "internalType": "address",
          "name": "to",
          "type": "address"
        },
        {
          "internalType": "uint256",
          "name": "tokenId",
          "type": "uint256"
        },
        {
          "internalType": "bytes",
          "name": "data",
          "type": "bytes"
        }
      ],
      "name": "safeTransferFrom",
      "outputs": [],
      "stateMutability": "nonpayable",
      "type": "function"
    },
    {
      "inputs": [
        {
          "internalType": "address",
          "name": "operator",
          "type": "address"
        },
        {
          "internalType": "bool",
          "name": "approved",
          "type": "bool"
        }
      ],
      "name": "setApprovalForAll",
      "outputs": [],
      "stateMutability": "nonpayable",
      "type": "function"
    },
    {
      "inputs": [
        {
          "internalType": "bytes4",
          "name": "interfaceId",
          "type": "bytes4"
        }
      ],
      "name": "supportsInterface",
      "outputs": [
        {
          "internalType": "bool",
          "name": "",
          "type": "bool"
        }
      ],
      "stateMutability": "view",
      "type": "function"
    },
    {
      "inputs": [],
      "name": "symbol",
      "outputs": [
        {
          "internalType": "string",
          "name": "",
          "type": "string"
        }
      ],
      "stateMutability": "view",
      "type": "function"
    },
    {
      "inputs": [
        {
          "internalType": "uint256",
          "name": "index",
          "type": "uint256"
        }
      ],
      "name": "tokenByIndex",
      "outputs": [
        {
          "internalType": "uint256",
          "name": "",
          "type": "uint256"
        }
      ],
      "stateMutability": "view",
      "type": "function"
    },
    {
      "inputs": [
        {
          "internalType": "address",
          "name": "owner",
          "type": "address"
        },
        {
          "internalType": "uint256",
          "name": "index",
          "type": "uint256"
        }
      ],
      "name": "tokenDetailsByIndex",
      "outputs": [
        {
          "internalType": "uint256",
          "name": "contributorID",
          "type": "uint256"
        },
        {
          "internalType": "string",
          "name": "cid",
          "type": "string"
        },
        {
          "internalType": "uint256",
          "name": "totalVotes",
          "type": "uint256"
        }
      ],
      "stateMutability": "view",
      "type": "function"
    },
    {
      "inputs": [
        {
          "internalType": "address",
          "name": "owner",
          "type": "address"
        },
        {
          "internalType": "uint256",
          "name": "index",
          "type": "uint256"
        }
      ],
      "name": "tokenOfOwnerByIndex",
      "outputs": [
        {
          "internalType": "uint256",
          "name": "",
          "type": "uint256"
        }
      ],
      "stateMutability": "view",
      "type": "function"
    },
    {
      "inputs": [
        {
          "internalType": "uint256",
          "name": "tokenId",
          "type": "uint256"
        }
      ],
      "name": "tokenURI",
      "outputs": [
        {
          "internalType": "string",
          "name": "",
          "type": "string"
        }
      ],
      "stateMutability": "view",
      "type": "function"
    },
    {
      "inputs": [
        {
          "internalType": "address",
          "name": "owner",
          "type": "address"
        }
      ],
      "name": "tokensOfOwner",
      "outputs": [
        {
          "components": [
            {
              "internalType": "uint256",
              "name": "contributorID",
              "type": "uint256"
            },
            {
              "internalType": "string",
              "name": "cid",
              "type": "string"
            },
            {
              "internalType": "uint256",
              "name": "totalVotes",
              "type": "uint256"
            }
          ],
          "internalType": "struct OSAP.TokenDetails[]",
          "name": "",
          "type": "tuple[]"
        }
      ],
      "stateMutability": "view",
      "type": "function"
    },
    {
      "inputs": [],
      "name": "totalMinted",
      "outputs": [
        {
          "internalType": "uint256",
          "name": "",
          "type": "uint256"
        }
      ],
      "stateMutability": "view",
      "type": "function"
    },
    {
      "inputs": [],
      "name": "totalSupply",
      "outputs": [
        {
          "internalType": "uint256",
          "name": "",
          "type": "uint256"
        }
      ],
      "stateMutability": "view",
      "type": "function"
    },
    {
      "inputs": [
        {
          "internalType": "address",
          "name": "from",
          "type": "address"
        },
        {
          "internalType": "address",
          "name": "to",
          "type": "address"
        },
        {
          "internalType": "uint256",
          "name": "tokenId",
          "type": "uint256"
        }
      ],
      "name": "transferFrom",
      "outputs": [],
      "stateMutability": "nonpayable",
      "type": "function"
    }
  ],
  "bytecode": "0x60806040523480156200001157600080fd5b5060405162002372380380620023728339810160408190526200003491620001e5565b8251839083906200004d90600090602085019062000072565b5080516200006390600190602084019062000072565b505050600b5550620002959050565b828054620000809062000258565b90600052602060002090601f016020900481019282620000a45760008555620000ef565b82601f10620000bf57805160ff1916838001178555620000ef565b82800160010185558215620000ef579182015b82811115620000ef578251825591602001919060010190620000d2565b50620000fd92915062000101565b5090565b5b80821115620000fd576000815560010162000102565b634e487b7160e01b600052604160045260246000fd5b600082601f8301126200014057600080fd5b81516001600160401b03808211156200015d576200015d62000118565b604051601f8301601f19908116603f0116810190828211818310171562000188576200018862000118565b81604052838152602092508683858801011115620001a557600080fd5b600091505b83821015620001c95785820183015181830184015290820190620001aa565b83821115620001db5760008385830101525b9695505050505050565b600080600060608486031215620001fb57600080fd5b83516001600160401b03808211156200021357600080fd5b62000221878388016200012e565b945060208601519150808211156200023857600080fd5b5062000247868287016200012e565b925050604084015190509250925092565b600181811c908216806200026d57607f821691505b602082108114156200028f57634e487b7160e01b600052602260045260246000fd5b50919050565b6120cd80620002a56000396000f3fe608060405234801561001057600080fd5b50600436106101735760003560e01c80636508b10a116100de578063a2309ff811610097578063c87b56dd11610071578063c87b56dd1461032d578063d0def52114610340578063e985e9c514610353578063fcca991b1461038f57600080fd5b8063a2309ff8146102f0578063b88d4fde146102f9578063c6f5b0e01461030c57600080fd5b80636508b10a146102905780636fe8f9c51461029957806370a08231146102a25780638462151c146102b557806395d89b41146102d5578063a22cb465146102dd57600080fd5b806323b872dd1161013057806323b872dd1461022957806328f92bc71461023c5780632f745c591461024457806342842e0e146102575780634f6ccce71461026a5780636352211e1461027d57600080fd5b806301ffc9a71461017857806306fdde03146101a0578063081812fc146101b5578063095ea7b3146101e057806318160ddd146101f55780631d8213dd14610207575b600080fd5b61018b610186366004611a5e565b6103a2565b60405190151581526020015b60405180910390f35b6101a86103cd565b6040516101979190611ad3565b6101c86101c3366004611ae6565b61045f565b6040516001600160a01b039091168152602001610197565b6101f36101ee366004611b1b565b610486565b005b600c545b604051908152602001610197565b61021a610215366004611b1b565b6105a1565b60405161019793929190611b45565b6101f3610237366004611b6e565b6106b9565b600d546101f9565b6101f9610252366004611b1b565b6106ea565b6101f3610265366004611b6e565b610780565b6101f9610278366004611ae6565b61079b565b6101c861028b366004611ae6565b61082e565b6101f9600d5481565b6101f9600b5481565b6101f96102b0366004611baa565b61088e565b6102c86102c3366004611baa565b610914565b6040516101979190611bc5565b6101a8610a0c565b6101f36102eb366004611c46565b610a1b565b6101f9600c5481565b6101f3610307366004611d0e565b610a2a565b61031f61031a366004611ae6565b610a62565b604051610197929190611d8a565b6101a861033b366004611ae6565b610b6c565b6101f361034e366004611dac565b610be0565b61018b610361366004611e0e565b6001600160a01b03918216600090815260056020908152604080832093909416825291909152205460ff1690565b6101f361039d366004611e41565b610d49565b60006001600160e01b0319821663780e9d6360e01b14806103c757506103c782610dfd565b92915050565b6060600080546103dc90611e63565b80601f016020809104026020016040519081016040528092919081815260200182805461040890611e63565b80156104555780601f1061042a57610100808354040283529160200191610455565b820191906000526020600020905b81548152906001019060200180831161043857829003601f168201915b5050505050905090565b600061046a82610e4d565b506000908152600460205260409020546001600160a01b031690565b60006104918261082e565b9050806001600160a01b0316836001600160a01b031614156105045760405162461bcd60e51b815260206004820152602160248201527f4552433732313a20617070726f76616c20746f2063757272656e74206f776e656044820152603960f91b60648201526084015b60405180910390fd5b336001600160a01b038216148061052057506105208133610361565b6105925760405162461bcd60e51b815260206004820152603d60248201527f4552433732313a20617070726f76652063616c6c6572206973206e6f7420746f60448201527f6b656e206f776e6572206f7220617070726f76656420666f7220616c6c00000060648201526084016104fb565b61059c8383610ea0565b505050565b6000606060006105b08561088e565b84106105fe5760405162461bcd60e51b815260206004820152601960248201527f4f776e657220696e646578206f7574206f6620626f756e64730000000000000060448201526064016104fb565b61060885856106ea565b6000818152600a60205260409020600181018054929550909161062a90611e63565b80601f016020809104026020016040519081016040528092919081815260200182805461065690611e63565b80156106a35780601f10610678576101008083540402835291602001916106a3565b820191906000526020600020905b81548152906001019060200180831161068657829003601f168201915b5050505050925080600201549150509250925092565b6106c33382610f0e565b6106df5760405162461bcd60e51b81526004016104fb90611e9e565b61059c838383610f8d565b60006106f58361088e565b82106107575760405162461bcd60e51b815260206004820152602b60248201527f455243373231456e756d657261626c653a206f776e657220696e646578206f7560448201526a74206f6620626f756e647360a81b60648201526084016104fb565b506001600160a01b03919091166000908152600660209081526040808320938352929052205490565b61059c83838360405180602001604052806000815250610a2a565b60006107a660085490565b82106108095760405162461bcd60e51b815260206004820152602c60248201527f455243373231456e756d657261626c653a20676c6f62616c20696e646578206f60448201526b7574206f6620626f756e647360a01b60648201526084016104fb565b6008828154811061081c5761081c611eeb565b90600052602060002001549050919050565b6000818152600260205260408120546001600160a01b0316806103c75760405162461bcd60e51b8152602060048201526018602482015277115490cdcc8c4e881a5b9d985b1a59081d1bdad95b88125160421b60448201526064016104fb565b60006001600160a01b0382166108f85760405162461bcd60e51b815260206004820152602960248201527f4552433732313a2061646472657373207a65726f206973206e6f7420612076616044820152683634b21037bbb732b960b91b60648201526084016104fb565b506001600160a01b031660009081526003602052604090205490565b606060006109218361088e565b905060008167ffffffffffffffff81111561093e5761093e611c82565b60405190808252806020026020018201604052801561099357816020015b61098060405180606001604052806000815260200160608152602001600081525090565b81526020019060019003908161095c5790505b50905060005b82811015610a045760008060006109b088856105a1565b9250925092506040518060600160405280848152602001838152602001828152508585815181106109e3576109e3611eeb565b602002602001018190525050505080806109fc90611f17565b915050610999565b509392505050565b6060600180546103dc90611e63565b610a263383836110fe565b5050565b610a343383610f0e565b610a505760405162461bcd60e51b81526004016104fb90611e9e565b610a5c848484846111c5565b50505050565b60606000610a6f836111f8565b610abb5760405162461bcd60e51b815260206004820152601a60248201527f436f6e7472696275746f7220646f6573206e6f7420657869737400000000000060448201526064016104fb565b6000838152600a6020526040902060028101546001820180549091908290610ae290611e63565b80601f0160208091040260200160405190810160405280929190818152602001828054610b0e90611e63565b8015610b5b5780601f10610b3057610100808354040283529160200191610b5b565b820191906000526020600020905b815481529060010190602001808311610b3e57829003601f168201915b505050505091509250925050915091565b6060610b7782610e4d565b6000610b8e60408051602081019091526000815290565b90506000815111610bae5760405180602001604052806000815250610bd9565b80610bb884611215565b604051602001610bc9929190611f32565b6040516020818303038152906040525b9392505050565b6000600d546001610bf19190611f61565b9050610bfc816111f8565b15610c3c5760405162461bcd60e51b815260206004820152601060248201526f24a21030b63932b0b23c903a30b5b2b760811b60448201526064016104fb565b610c458361088e565b15610c8b5760405162461bcd60e51b81526020600482015260166024820152754164647265737320616c72656164792065786973747360501b60448201526064016104fb565b610c9583826112aa565b6040805160608101825282815260208082018581526000838501819052858152600a8352939093208251815592518051929392610cd892600185019201906119af565b5060409190910151600290910155600c8054906000610cf683611f17565b919050555080600d8190555080836001600160a01b03167f85a66b9141978db9980f7e0ce3b468cebf4f7999f32b23091c5c03e798b1ba7a84604051610d3c9190611ad3565b60405180910390a3505050565b610d52826111f8565b610d9e5760405162461bcd60e51b815260206004820152601a60248201527f436f6e7472696275746f7220646f6573206e6f7420657869737400000000000060448201526064016104fb565b6000828152600a602052604081206002018054839290610dbf908490611f61565b909155505060405181815282907fd4d383f8ed189d1368006d33d0ae7bf1e4fe9f3f86f205ae60d7a50bbba58b389060200160405180910390a25050565b60006001600160e01b031982166380ac58cd60e01b1480610e2e57506001600160e01b03198216635b5e139f60e01b145b806103c757506301ffc9a760e01b6001600160e01b03198316146103c7565b610e56816111f8565b610e9d5760405162461bcd60e51b8152602060048201526018602482015277115490cdcc8c4e881a5b9d985b1a59081d1bdad95b88125160421b60448201526064016104fb565b50565b600081815260046020526040902080546001600160a01b0319166001600160a01b0384169081179091558190610ed58261082e565b6001600160a01b03167f8c5be1e5ebec7d5bd14f71427d1e84f3dd0314c0f7b2291e5b200ac8c7c3b92560405160405180910390a45050565b600080610f1a8361082e565b9050806001600160a01b0316846001600160a01b03161480610f6157506001600160a01b0380821660009081526005602090815260408083209388168352929052205460ff165b80610f855750836001600160a01b0316610f7a8461045f565b6001600160a01b0316145b949350505050565b826001600160a01b0316610fa08261082e565b6001600160a01b031614610fc65760405162461bcd60e51b81526004016104fb90611f79565b6001600160a01b0382166110285760405162461bcd60e51b8152602060048201526024808201527f4552433732313a207472616e7366657220746f20746865207a65726f206164646044820152637265737360e01b60648201526084016104fb565b61103583838360016112c4565b826001600160a01b03166110488261082e565b6001600160a01b03161461106e5760405162461bcd60e51b81526004016104fb90611f79565b600081815260046020908152604080832080546001600160a01b03199081169091556001600160a01b0387811680865260038552838620805460001901905590871680865283862080546001019055868652600290945282852080549092168417909155905184937fddf252ad1be2c89b69c2b068fc378daa952ba7f163c4a11628f55a4df523b3ef91a4505050565b816001600160a01b0316836001600160a01b031614156111605760405162461bcd60e51b815260206004820152601960248201527f4552433732313a20617070726f766520746f2063616c6c65720000000000000060448201526064016104fb565b6001600160a01b03838116600081815260056020908152604080832094871680845294825291829020805460ff191686151590811790915591519182527f17307eab39ab6107e8899845ad3d59bd9653f200f220920489ca2b5937696c319101610d3c565b6111d0848484610f8d565b6111dc84848484611404565b610a5c5760405162461bcd60e51b81526004016104fb90611fbe565b6000908152600260205260409020546001600160a01b0316151590565b6060600061122283611511565b600101905060008167ffffffffffffffff81111561124257611242611c82565b6040519080825280601f01601f19166020018201604052801561126c576020820181803683370190505b5090508181016020015b600019016f181899199a1a9b1b9c1cb0b131b232b360811b600a86061a8153600a85049450846112a557610a04565b611276565b610a268282604051806020016040528060008152506115e9565b6112d08484848461161c565b600181111561133f5760405162461bcd60e51b815260206004820152603560248201527f455243373231456e756d657261626c653a20636f6e7365637574697665207472604482015274185b9cd9995c9cc81b9bdd081cdd5c1c1bdc9d1959605a1b60648201526084016104fb565b816001600160a01b03851661139b5761139681600880546000838152600960205260408120829055600182018355919091527ff3f7a9fe364faab93b216da50a3214154f22a0a2b415b23a84c8169e8b636ee30155565b6113be565b836001600160a01b0316856001600160a01b0316146113be576113be85826116a4565b6001600160a01b0384166113da576113d581611741565b6113fd565b846001600160a01b0316846001600160a01b0316146113fd576113fd84826117f0565b5050505050565b60006001600160a01b0384163b1561150657604051630a85bd0160e11b81526001600160a01b0385169063150b7a0290611448903390899088908890600401612010565b602060405180830381600087803b15801561146257600080fd5b505af1925050508015611492575060408051601f3d908101601f1916820190925261148f9181019061204d565b60015b6114ec573d8080156114c0576040519150601f19603f3d011682016040523d82523d6000602084013e6114c5565b606091505b5080516114e45760405162461bcd60e51b81526004016104fb90611fbe565b805181602001fd5b6001600160e01b031916630a85bd0160e11b149050610f85565b506001949350505050565b60008072184f03e93ff9f4daa797ed6e38ed64bf6a1f0160401b83106115505772184f03e93ff9f4daa797ed6e38ed64bf6a1f0160401b830492506040015b6d04ee2d6d415b85acef8100000000831061157c576d04ee2d6d415b85acef8100000000830492506020015b662386f26fc10000831061159a57662386f26fc10000830492506010015b6305f5e10083106115b2576305f5e100830492506008015b61271083106115c657612710830492506004015b606483106115d8576064830492506002015b600a83106103c75760010192915050565b6115f38383611834565b6116006000848484611404565b61059c5760405162461bcd60e51b81526004016104fb90611fbe565b6001811115610a5c576001600160a01b03841615611662576001600160a01b0384166000908152600360205260408120805483929061165c90849061206a565b90915550505b6001600160a01b03831615610a5c576001600160a01b03831660009081526003602052604081208054839290611699908490611f61565b909155505050505050565b600060016116b18461088e565b6116bb919061206a565b60008381526007602052604090205490915080821461170e576001600160a01b03841660009081526006602090815260408083208584528252808320548484528184208190558352600790915290208190555b5060009182526007602090815260408084208490556001600160a01b039094168352600681528383209183525290812055565b6008546000906117539060019061206a565b6000838152600960205260408120546008805493945090928490811061177b5761177b611eeb565b90600052602060002001549050806008838154811061179c5761179c611eeb565b60009182526020808320909101929092558281526009909152604080822084905585825281205560088054806117d4576117d4612081565b6001900381819060005260206000200160009055905550505050565b60006117fb8361088e565b6001600160a01b039093166000908152600660209081526040808320868452825280832085905593825260079052919091209190915550565b6001600160a01b03821661188a5760405162461bcd60e51b815260206004820181905260248201527f4552433732313a206d696e7420746f20746865207a65726f206164647265737360448201526064016104fb565b611893816111f8565b156118e05760405162461bcd60e51b815260206004820152601c60248201527f4552433732313a20746f6b656e20616c7265616479206d696e7465640000000060448201526064016104fb565b6118ee6000838360016112c4565b6118f7816111f8565b156119445760405162461bcd60e51b815260206004820152601c60248201527f4552433732313a20746f6b656e20616c7265616479206d696e7465640000000060448201526064016104fb565b6001600160a01b038216600081815260036020908152604080832080546001019055848352600290915280822080546001600160a01b0319168417905551839291907fddf252ad1be2c89b69c2b068fc378daa952ba7f163c4a11628f55a4df523b3ef908290a45050565b8280546119bb90611e63565b90600052602060002090601f0160209004810192826119dd5760008555611a23565b82601f106119f657805160ff1916838001178555611a23565b82800160010185558215611a23579182015b82811115611a23578251825591602001919060010190611a08565b50611a2f929150611a33565b5090565b5b80821115611a2f5760008155600101611a34565b6001600160e01b031981168114610e9d57600080fd5b600060208284031215611a7057600080fd5b8135610bd981611a48565b60005b83811015611a96578181015183820152602001611a7e565b83811115610a5c5750506000910152565b60008151808452611abf816020860160208601611a7b565b601f01601f19169290920160200192915050565b602081526000610bd96020830184611aa7565b600060208284031215611af857600080fd5b5035919050565b80356001600160a01b0381168114611b1657600080fd5b919050565b60008060408385031215611b2e57600080fd5b611b3783611aff565b946020939093013593505050565b838152606060208201526000611b5e6060830185611aa7565b9050826040830152949350505050565b600080600060608486031215611b8357600080fd5b611b8c84611aff565b9250611b9a60208501611aff565b9150604084013590509250925092565b600060208284031215611bbc57600080fd5b610bd982611aff565b60006020808301818452808551808352604092508286019150828160051b87010184880160005b83811015611c3857603f19898403018552815160608151855288820151818a870152611c1a82870182611aa7565b92890151958901959095525094870194925090860190600101611bec565b509098975050505050505050565b60008060408385031215611c5957600080fd5b611c6283611aff565b915060208301358015158114611c7757600080fd5b809150509250929050565b634e487b7160e01b600052604160045260246000fd5b600067ffffffffffffffff80841115611cb357611cb3611c82565b604051601f8501601f19908116603f01168101908282118183101715611cdb57611cdb611c82565b81604052809350858152868686011115611cf457600080fd5b858560208301376000602087830101525050509392505050565b60008060008060808587031215611d2457600080fd5b611d2d85611aff565b9350611d3b60208601611aff565b925060408501359150606085013567ffffffffffffffff811115611d5e57600080fd5b8501601f81018713611d6f57600080fd5b611d7e87823560208401611c98565b91505092959194509250565b604081526000611d9d6040830185611aa7565b90508260208301529392505050565b60008060408385031215611dbf57600080fd5b611dc883611aff565b9150602083013567ffffffffffffffff811115611de457600080fd5b8301601f81018513611df557600080fd5b611e0485823560208401611c98565b9150509250929050565b60008060408385031215611e2157600080fd5b611e2a83611aff565b9150611e3860208401611aff565b90509250929050565b60008060408385031215611e5457600080fd5b50508035926020909101359150565b600181811c90821680611e7757607f821691505b60208210811415611e9857634e487b7160e01b600052602260045260246000fd5b50919050565b6020808252602d908201527f4552433732313a2063616c6c6572206973206e6f7420746f6b656e206f776e6560408201526c1c881bdc88185c1c1c9bdd9959609a1b606082015260800190565b634e487b7160e01b600052603260045260246000fd5b634e487b7160e01b600052601160045260246000fd5b6000600019821415611f2b57611f2b611f01565b5060010190565b60008351611f44818460208801611a7b565b835190830190611f58818360208801611a7b565b01949350505050565b60008219821115611f7457611f74611f01565b500190565b60208082526025908201527f4552433732313a207472616e736665722066726f6d20696e636f72726563742060408201526437bbb732b960d91b606082015260800190565b60208082526032908201527f4552433732313a207472616e7366657220746f206e6f6e20455243373231526560408201527131b2b4bb32b91034b6b83632b6b2b73a32b960711b606082015260800190565b6001600160a01b038581168252841660208201526040810183905260806060820181905260009061204390830184611aa7565b9695505050505050565b60006020828403121561205f57600080fd5b8151610bd981611a48565b60008282101561207c5761207c611f01565b500390565b634e487b7160e01b600052603160045260246000fdfea2646970667358221220e414dee09d0fc7030c5caea4002aa419ae47fd35cd6b01f68d576d132dc1d32a64736f6c63430008090033",
  "linkReferences": {},
  "deployedLinkReferences": {}
}